{
  "_format": "hh-sol-artifact-1",
  "contractName": "Credit",
  "sourceName": "contracts/Credit.sol",
  "abi": [
    {
      "inputs": [
        {
          "internalType": "uint256",
          "name": "maxAmount",
          "type": "uint256"
        }
      ],
      "name": "ErrorMaxWithdrawAmount",
      "type": "error"
    },
    {
      "inputs": [
        {
          "internalType": "uint256",
          "name": "minAmount",
          "type": "uint256"
        }
      ],
      "name": "ErrorMinTopupAmount",
      "type": "error"
    },
    {
      "inputs": [],
      "name": "InvalidInitialization",
      "type": "error"
    },
    {
      "inputs": [],
      "name": "NotInitializing",
      "type": "error"
    },
    {
      "inputs": [
        {
          "internalType": "address",
          "name": "owner",
          "type": "address"
        }
      ],
      "name": "OwnableInvalidOwner",
      "type": "error"
    },
    {
      "inputs": [
        {
          "internalType": "address",
          "name": "account",
          "type": "address"
        }
      ],
      "name": "OwnableUnauthorizedAccount",
      "type": "error"
    },
    {
      "anonymous": false,
      "inputs": [
        {
          "indexed": false,
          "internalType": "address",
          "name": "account",
          "type": "address"
        },
        {
          "indexed": false,
          "internalType": "uint256",
          "name": "amount",
          "type": "uint256"
        }
      ],
      "name": "CreditFrom",
      "type": "event"
    },
    {
      "anonymous": false,
      "inputs": [
        {
          "indexed": false,
          "internalType": "address",
          "name": "account",
          "type": "address"
        },
        {
          "indexed": false,
          "internalType": "uint256",
          "name": "amount",
          "type": "uint256"
        }
      ],
      "name": "CreditTo",
      "type": "event"
    },
    {
      "anonymous": false,
      "inputs": [
        {
          "indexed": false,
          "internalType": "uint64",
          "name": "version",
          "type": "uint64"
        }
      ],
      "name": "Initialized",
      "type": "event"
    },
    {
      "anonymous": false,
      "inputs": [
        {
          "indexed": true,
          "internalType": "address",
          "name": "previousOwner",
          "type": "address"
        },
        {
          "indexed": true,
          "internalType": "address",
          "name": "newOwner",
          "type": "address"
        }
      ],
      "name": "OwnershipTransferred",
      "type": "event"
    },
    {
      "anonymous": false,
      "inputs": [
        {
          "indexed": false,
          "internalType": "address",
          "name": "from",
          "type": "address"
        },
        {
          "indexed": false,
          "internalType": "address",
          "name": "to",
          "type": "address"
        },
        {
          "indexed": false,
          "internalType": "uint256",
          "name": "amount",
          "type": "uint256"
        }
      ],
      "name": "Topup",
      "type": "event"
    },
    {
      "anonymous": false,
      "inputs": [
        {
          "indexed": false,
          "internalType": "address",
          "name": "from",
          "type": "address"
        },
        {
          "indexed": false,
          "internalType": "uint256",
          "name": "amount",
          "type": "uint256"
        }
      ],
      "name": "TopupSystem",
      "type": "event"
    },
    {
      "anonymous": false,
      "inputs": [
        {
          "indexed": false,
          "internalType": "uint256",
          "name": "oldValue",
          "type": "uint256"
        },
        {
          "indexed": false,
          "internalType": "uint256",
          "name": "newValue",
          "type": "uint256"
        }
      ],
      "name": "UpdateMaxWithdrawAmount",
      "type": "event"
    },
    {
      "anonymous": false,
      "inputs": [
        {
          "indexed": false,
          "internalType": "uint256",
          "name": "oldValue",
          "type": "uint256"
        },
        {
          "indexed": false,
          "internalType": "uint256",
          "name": "newValue",
          "type": "uint256"
        }
      ],
      "name": "UpdateMintTopupAmount",
      "type": "event"
    },
    {
      "anonymous": false,
      "inputs": [
        {
          "indexed": false,
          "internalType": "address",
          "name": "from",
          "type": "address"
        },
        {
          "indexed": false,
          "internalType": "address",
          "name": "to",
          "type": "address"
        },
        {
          "indexed": false,
          "internalType": "uint256",
          "name": "amount",
          "type": "uint256"
        }
      ],
      "name": "Withdraw",
      "type": "event"
    },
    {
      "inputs": [],
      "name": "ADMIN_ROLE",
      "outputs": [
        {
          "internalType": "bytes32",
          "name": "",
          "type": "bytes32"
        }
      ],
      "stateMutability": "view",
      "type": "function"
    },
    {
      "inputs": [],
      "name": "WEI6",
      "outputs": [
        {
          "internalType": "uint64",
          "name": "",
          "type": "uint64"
        }
      ],
      "stateMutability": "view",
      "type": "function"
    },
    {
      "inputs": [],
      "name": "X1000",
      "outputs": [
        {
          "internalType": "bytes32",
          "name": "",
          "type": "bytes32"
        }
      ],
      "stateMutability": "view",
      "type": "function"
    },
    {
      "inputs": [
        {
          "internalType": "address",
          "name": "account",
          "type": "address"
        }
      ],
      "name": "getCredit",
      "outputs": [
        {
          "internalType": "uint256",
          "name": "",
          "type": "uint256"
        }
      ],
      "stateMutability": "view",
      "type": "function"
    },
    {
      "inputs": [],
      "name": "getFee",
      "outputs": [
        {
          "internalType": "uint256",
          "name": "",
          "type": "uint256"
        }
      ],
      "stateMutability": "view",
      "type": "function"
    },
    {
      "inputs": [
        {
          "internalType": "address",
          "name": "bookieAddress",
          "type": "address"
        },
        {
          "internalType": "address",
          "name": "creditToken",
          "type": "address"
        },
        {
          "internalType": "uint256",
          "name": "initMinTopupAmount",
          "type": "uint256"
        },
        {
          "internalType": "uint256",
          "name": "initMaxWithdrawAmount",
          "type": "uint256"
        }
      ],
      "name": "initialize",
      "outputs": [],
      "stateMutability": "nonpayable",
      "type": "function"
    },
    {
      "inputs": [
        {
          "internalType": "address",
          "name": "_address",
          "type": "address"
        },
        {
          "internalType": "bytes32",
          "name": "_hash",
          "type": "bytes32"
        },
        {
          "internalType": "bytes",
          "name": "_signature",
          "type": "bytes"
        }
      ],
      "name": "isValidSignature",
      "outputs": [
        {
          "internalType": "bool",
          "name": "",
          "type": "bool"
        }
      ],
      "stateMutability": "view",
      "type": "function"
    },
    {
      "inputs": [],
      "name": "maxWithdrawAmount",
      "outputs": [
        {
          "internalType": "uint256",
          "name": "",
          "type": "uint256"
        }
      ],
      "stateMutability": "view",
      "type": "function"
    },
    {
      "inputs": [],
      "name": "minTopupAmount",
      "outputs": [
        {
          "internalType": "uint256",
          "name": "",
          "type": "uint256"
        }
      ],
      "stateMutability": "view",
      "type": "function"
    },
    {
      "inputs": [],
      "name": "owner",
      "outputs": [
        {
          "internalType": "address",
          "name": "",
          "type": "address"
        }
      ],
      "stateMutability": "view",
      "type": "function"
    },
    {
      "inputs": [],
      "name": "platformCredit",
      "outputs": [
        {
          "internalType": "uint256",
          "name": "",
          "type": "uint256"
        }
      ],
      "stateMutability": "view",
      "type": "function"
    },
    {
      "inputs": [],
      "name": "renounceOwnership",
      "outputs": [],
      "stateMutability": "nonpayable",
      "type": "function"
    },
    {
      "inputs": [
        {
          "internalType": "address",
          "name": "bookieAddress",
          "type": "address"
        }
      ],
      "name": "setBookie",
      "outputs": [],
      "stateMutability": "nonpayable",
      "type": "function"
    },
    {
      "inputs": [
        {
          "internalType": "address",
          "name": "account",
          "type": "address"
        },
        {
          "internalType": "uint256",
          "name": "amount",
          "type": "uint256"
        }
      ],
      "name": "setCredit",
      "outputs": [],
      "stateMutability": "nonpayable",
      "type": "function"
    },
    {
      "inputs": [
        {
          "internalType": "uint256",
          "name": "amount",
          "type": "uint256"
        }
      ],
      "name": "setFee",
      "outputs": [],
      "stateMutability": "nonpayable",
      "type": "function"
    },
    {
      "inputs": [
        {
          "internalType": "uint256",
          "name": "newMaxWithdrawAmount",
          "type": "uint256"
        }
      ],
      "name": "setMaxWithdrawAmount",
      "outputs": [],
      "stateMutability": "nonpayable",
      "type": "function"
    },
    {
      "inputs": [
        {
          "internalType": "uint256",
          "name": "newMinTopupAmount",
          "type": "uint256"
        }
      ],
      "name": "setMinTopupAmount",
      "outputs": [],
      "stateMutability": "nonpayable",
      "type": "function"
    },
    {
      "inputs": [
        {
          "internalType": "bool",
          "name": "isPaused",
          "type": "bool"
        }
      ],
      "name": "setPaused",
      "outputs": [],
      "stateMutability": "nonpayable",
      "type": "function"
    },
    {
      "inputs": [
        {
          "internalType": "uint256",
          "name": "amount",
          "type": "uint256"
        }
      ],
      "name": "setPlatform",
      "outputs": [],
      "stateMutability": "nonpayable",
      "type": "function"
    },
    {
      "inputs": [
        {
          "internalType": "uint256",
          "name": "amount",
          "type": "uint256"
        }
      ],
      "name": "topup",
      "outputs": [],
      "stateMutability": "nonpayable",
      "type": "function"
    },
    {
      "inputs": [
        {
          "internalType": "uint256",
          "name": "amount",
          "type": "uint256"
        }
      ],
      "name": "topupSystem",
      "outputs": [],
      "stateMutability": "nonpayable",
      "type": "function"
    },
    {
      "inputs": [
        {
          "internalType": "address",
          "name": "account",
          "type": "address"
        },
        {
          "internalType": "uint256",
          "name": "amount",
          "type": "uint256"
        }
      ],
      "name": "topupTo",
      "outputs": [],
      "stateMutability": "nonpayable",
      "type": "function"
    },
    {
      "inputs": [],
      "name": "totalTopup",
      "outputs": [
        {
          "internalType": "uint256",
          "name": "",
          "type": "uint256"
        }
      ],
      "stateMutability": "view",
      "type": "function"
    },
    {
      "inputs": [],
      "name": "totalWithdraw",
      "outputs": [
        {
          "internalType": "uint256",
          "name": "",
          "type": "uint256"
        }
      ],
      "stateMutability": "view",
      "type": "function"
    },
    {
      "inputs": [
        {
          "internalType": "address",
          "name": "newOwner",
          "type": "address"
        }
      ],
      "name": "transferOwnership",
      "outputs": [],
      "stateMutability": "nonpayable",
      "type": "function"
    },
    {
      "inputs": [
        {
          "internalType": "uint256",
          "name": "amount",
          "type": "uint256"
        }
      ],
      "name": "withdraw",
      "outputs": [],
      "stateMutability": "nonpayable",
      "type": "function"
    },
    {
      "inputs": [
        {
          "internalType": "address",
          "name": "account",
          "type": "address"
        },
        {
          "internalType": "uint256",
          "name": "amount",
          "type": "uint256"
        }
      ],
      "name": "withdrawTo",
      "outputs": [],
      "stateMutability": "nonpayable",
      "type": "function"
    }
  ],
  "bytecode": "0x60808060405234610016576116ee908161001c8239f35b600080fdfe608060408181526004918236101561001657600080fd5b600092833560e01c9182630dff2d0c146110285750816316c38b3c14610f01578163205c287814610edc578163238a4d1e14610d145781632e1a7d4d14610cf657816330db555f14610cd85781633492d75814610bf057816339a7e4c414610abb5781633d77c3be14610a96578163455fd62314610a585781635587715714610a3a57816357344e6f14610a0c57816369fe0e2d14610961578163715018a6146108f7578163726660bd146108ce57816375b238fc146108a557816375cda51c146108795781638da5cb5b14610843578163b40ee8b41461073a578163c482dcef1461066e578163ced72f8714610630578163d89816bb14610501578163df74e02814610391578163eb990c59146101e957508063f2fde38b146101b9578063f516440c1461018e5763f9eaa9ae1461014e57600080fd5b3461018a578160031936011261018a576020907f61ac7db12115f048078a0d98a419d1b6e0364eec44a215b3bd04f8734bdacc06549051908152f35b5080fd5b503461018a578160031936011261018a57602090600080516020611659833981519152549051908152f35b82346101e65760203660031901126101e6576101e36101d6611051565b6101de6110c0565b6110f9565b80f35b80fd5b90503461038d57608036600319011261038d57610204611051565b6001600160a01b03919060243583811690819003610389577ff0c57e16840df040f15088dc2f81fe391c3923bec73e23a9662efc9c229c6a0093845460ff81881c16159467ffffffffffffffff821680159081610381575b6001149081610377575b15908161036e575b50610360575067ffffffffffffffff198116600117865584610341575b5061029461116d565b61029c61116d565b6102a5336110f9565b6102ad61116d565b865492166001600160a01b03199283161786556000805160206115d983398151915280549092161790556044356000805160206115f98339815191525560643560008051602061165983398151915255610305578280f35b805460ff60401b1916905551600181527fc7f505b2f371ae2175ee4913f4499e1f2633a7b5936321eed1cdaeb6115181d290602090a138808280f35b68ffffffffffffffffff1916680100000000000000011785553861028b565b875163f92ee8a960e01b8152fd5b9050153861026e565b303b159150610266565b87915061025c565b8580fd5b8280fd5b83833461018a5760208060031936011261038d5782548251632474521560e21b8082526000805160206116798339815191528783018190523360248401528735979391926001600160a01b03909216918581604481865afa9081156104f7579086929189916104da575b5015938461046e575b5050505061045157507fbb9190384286d2651f31f7818613c227bbf20fa341c278a5fddbd0643c03bc8592936000805160206116598339815191529181835493558351928352820152a180f35b825162461bcd60e51b815290819061046a9082016114ef565b0390fd5b60449192939450875194859384928352878301523360248301525afa9081156104d05785916104a3575b501586838180610404565b6104c39150833d85116104c9575b6104bb818361106c565b8101906111ae565b86610498565b503d6104b1565b84513d87823e3d90fd5b6104f19150833d85116104c9576104bb818361106c565b8a6103fb565b87513d8a823e3d90fd5b83833461018a5760208060031936011261038d5782548251632474521560e21b8082526000805160206116798339815191528783018190523360248401528735979391926001600160a01b03909216918581604481865afa9081156104f757908692918991610613575b501593846105c1575b5050505061045157507f046bc93702e44a9d34cdc4c8afce7cc06f733bdd18da177a2590085bb779903b92936000805160206115f98339815191529181835493558351928352820152a180f35b60449192939450875194859384928352878301523360248301525afa9081156104d05785916105f6575b501586838180610574565b61060d9150833d85116104c9576104bb818361106c565b866105eb565b61062a9150833d85116104c9576104bb818361106c565b8a61056b565b50503461018a578160031936011261018a576020907f61ac7db12115f048078a0d98a419d1b6e0364eec44a215b3bd04f8734bdacc05549051908152f35b9190503461038d57602036600319011261038d57825481516321f8a72160e01b815260008051602061169983398151915284820152906001600160a01b03906020908390602490829085165afa918215610730578592610700575b50339116036106e75750356000805160206116198339815191525580f35b5162461bcd60e51b81529150819061046a9082016114c6565b61072291925060203d8111610729575b61071a818361106c565b8101906114a7565b90386106c9565b503d610710565b83513d87823e3d90fd5b8391503461018a578260031936011261018a57610755611051565b825484516321f8a72160e01b8152600080516020611699833981519152818501526024803594926001600160a01b0391602091849190829085165afa918215610839578692610819575b503391160361080057506107fa7fa9f003a3a93a45b85c247e109456da7c8560e293af561e0c0045d4735586a8e59394836107d9846111e8565b55516001600160a01b03909216825260208201929092529081906040820190565b0390a180f35b845162461bcd60e51b815290819061046a9082016114c6565b61083291925060203d81116107295761071a818361106c565b908761079f565b87513d88823e3d90fd5b50503461018a578160031936011261018a576000805160206116398339815191525490516001600160a01b039091168152602090f35b50503461018a578160031936011261018a57602090600080516020611619833981519152549051908152f35b50503461018a578160031936011261018a57602090516000805160206116798339815191528152f35b50503461018a578160031936011261018a57602090516000805160206116998339815191528152f35b83346101e657806003193601126101e6576109106110c0565b60008051602061163983398151915280546001600160a01b0319811690915581906001600160a01b03167f8be0079c531659141344cd1fd0a4f28419497f9722a3daafe3b4186f6b6457e08280a380f35b9190503461038d57602036600319011261038d57825481516321f8a72160e01b815260008051602061169983398151915284820152906001600160a01b03906020908390602490829085165afa9182156107305785926109ec575b50339116036106e75750357f61ac7db12115f048078a0d98a419d1b6e0364eec44a215b3bd04f8734bdacc055580f35b610a0591925060203d81116107295761071a818361106c565b90386109bc565b50503461018a57602036600319011261018a57602090610a32610a2d611051565b6111e8565b549051908152f35b50503461018a578160031936011261018a5760209051620f42408152f35b50503461018a578160031936011261018a576020907f61ac7db12115f048078a0d98a419d1b6e0364eec44a215b3bd04f8734bdacc07549051908152f35b50503461018a573660031901126101e6576101e3610ab2611051565b60243590611244565b90503461038d5760209081600319360112610bec57610ad8611051565b9084549360018060a01b0393848616825190632474521560e21b918281526000805160206116798339815191529081878201523360248201528481604481865afa908115610be2578b91610bc5575b50159283610b68575b5050509050610b4f5750506001600160a01b0319909216911617815580f35b5162461bcd60e51b81529150819061046a9082016114ef565b84929350604490865194859384928352898301523360248301525afa918215610bbb578892610b9e575b50501580388080610b30565b610bb49250803d106104c9576104bb818361106c565b3880610b92565b83513d8a823e3d90fd5b610bdc9150853d87116104c9576104bb818361106c565b38610b27565b86513d8d823e3d90fd5b8380fd5b90503461038d57602036600319011261038d57610c4360208235809360018060a01b036000805160206115d98339815191525416908787518096819582946323b872dd60e01b84523090339085016111c6565b03925af18015610ccb57926107fa92917f812cbe403c2c284b57af31b2950e16f2425ce050ab0c7ea695a659903d55876c94610cad575b50600080516020611619833981519152610c95838254611221565b90555133815260208101919091529081906040820190565b610cc49060203d81116104c9576104bb818361106c565b5038610c7a565b50505051903d90823e3d90fd5b83903461018a57602036600319011261018a576101e3903533611244565b83903461018a57602036600319011261018a576101e390353361136b565b9190503461038d57606036600319011261038d57610d30611051565b926024356044359467ffffffffffffffff861161038d573660238701121561038d5785850135610d5f816110a4565b90610d6c8651928361106c565b808252366024828a010111610ed85760249781869260209a8b93018386013783010152610d998184611516565b50909680821015610ec55750159586610eaf575b508515610dc1575b50505050519015158152f35b91929394508390855187810190630b135d3f60e11b95868352602482015287604482015284519485606483015289855b878110610e9857505050610e21608482878783819a84010152601f8019910116810103606481018452018261106c565b51915afa913d15610e90573d90610e37826110a4565b91610e448651938461106c565b82523d818784013e5b83610e83575b83610e66575b5050509038808080610db5565b9091925084828051810103126101e6575083015114388080610e59565b9250848151101592610e53565b606090610e4d565b808301820151818501608401528996508101610df1565b6001600160a01b03838116911614955038610dad565b634e487b7160e01b865260219052602485fd5b8480fd5b50503461018a573660031901126101e6576101e3610ef8611051565b6024359061136b565b9190503461038d5760209182600319360112610bec57803591821515809303610ed85784548151632474521560e21b80825260008051602061167983398151915285830181905233602484015292969290916001600160a01b03881691908481604481865afa90811561101e578a91611001575b50159283610fa4575b5050509050610b4f57505060ff60a01b1990911660a09190911b60ff60a01b1617815580f35b84929350604490865194859384928352898301523360248301525afa918215610ff7578792610fda575b50501580388080610f7e565b610ff09250803d106104c9576104bb818361106c565b3880610fce565b83513d89823e3d90fd5b6110189150853d87116104c9576104bb818361106c565b38610f75565b86513d8c823e3d90fd5b84903461018a578160031936011261018a576020906000805160206115f9833981519152548152f35b600435906001600160a01b038216820361106757565b600080fd5b90601f8019910116810190811067ffffffffffffffff82111761108e57604052565b634e487b7160e01b600052604160045260246000fd5b67ffffffffffffffff811161108e57601f01601f191660200190565b600080516020611639833981519152546001600160a01b031633036110e157565b60405163118cdaa760e01b8152336004820152602490fd5b6001600160a01b039081169081156111545760008051602061163983398151915280546001600160a01b031981168417909155167f8be0079c531659141344cd1fd0a4f28419497f9722a3daafe3b4186f6b6457e0600080a3565b604051631e4fbdf760e01b815260006004820152602490fd5b60ff7ff0c57e16840df040f15088dc2f81fe391c3923bec73e23a9662efc9c229c6a005460401c161561119c57565b604051631afcd79f60e31b8152600490fd5b90816020910312611067575180151581036110675790565b6001600160a01b03918216815291166020820152604081019190915260600190565b6001600160a01b031660009081527f61ac7db12115f048078a0d98a419d1b6e0364eec44a215b3bd04f8734bdacc036020526040902090565b9190820180921161122e57565b634e487b7160e01b600052601160045260246000fd5b906000805160206115f98339815191525481811161135357506000805160206115d9833981519152546040516323b872dd60e01b8152929060209084906001600160a01b03168160008161129d883033600485016111c6565b03925af1928315611347577f595cd27b62af24092ae2d5497be2f8807863b770713cf70254dbebc7c6f4c7c793611329575b506112d9816111e8565b6112e4838254611221565b90557f61ac7db12115f048078a0d98a419d1b6e0364eec44a215b3bd04f8734bdacc06611312838254611221565b905561132460405192839233846111c6565b0390a1565b6113409060203d81116104c9576104bb818361106c565b50386112cf565b6040513d6000823e3d90fd5b60249060405190636285a9ff60e01b82526004820152fd5b9080611376336111e8565b541061146c576000805160206116598339815191525481811061145457506000805160206115d98339815191525460405163a9059cbb60e01b81526001600160a01b0384811660048301526024820184905290939160209185916044918391600091165af1928315611347577f9b1bfa7fa9ee420a16e124f794c35ac9f90472acc99140eb2f6447c714cad8eb93611436575b507f61ac7db12115f048078a0d98a419d1b6e0364eec44a215b3bd04f8734bdacc07611312838254611221565b61144d9060203d81116104c9576104bb818361106c565b5038611409565b60249060405190634829186760e01b82526004820152fd5b60405162461bcd60e51b8152602060048201526013602482015272125b9cdd59999a58da595b9d0810dc99591a5d606a1b6044820152606490fd5b9081602091031261106757516001600160a01b03811681036110675790565b60609060208152600e60208201526d24b73b30b634b21021b0b63632b960911b60408201520190565b60609060208152600c60208201526b4d697373696e6720526f6c6560a01b60408201520190565b81519190604183036115475761154092506020820151906060604084015193015160001a90611552565b9192909190565b505060009160029190565b91906fa2a8918ca85bafe22016d0b997e4df60600160ff1b0384116115cc57926020929160ff608095604051948552168484015260408301526060820152600092839182805260015afa156115c05780516001600160a01b038116156115b757918190565b50809160019190565b604051903d90823e3d90fd5b5050506000916003919056fe61ac7db12115f048078a0d98a419d1b6e0364eec44a215b3bd04f8734bdacc0061ac7db12115f048078a0d98a419d1b6e0364eec44a215b3bd04f8734bdacc0161ac7db12115f048078a0d98a419d1b6e0364eec44a215b3bd04f8734bdacc049016d09d72d40fdae2fd8ceac6b6234c7706214fd39c1cd1e609a0528c19930061ac7db12115f048078a0d98a419d1b6e0364eec44a215b3bd04f8734bdacc02a49807205ce4d355092ef5a8a18f56e8913cf4a201fbe287825b095693c2177513fff59beea2eceb86f38a3a74fc2d84683cf9c23f57b305e819dbe12b1158bca2646970667358221220fe5256dd63437268d80b79e73172fb408edbe070e33d7baa22ef74cbf5166ed264736f6c63430008140033",
  "linkReferences": {},
  "deployedLinkReferences": {}
}