{
  "_format": "hh-sol-artifact-1",
  "contractName": "Events",
  "sourceName": "contracts/Events.sol",
  "abi": [
    {
      "inputs": [],
      "name": "InvalidInitialization",
      "type": "error"
    },
    {
      "inputs": [],
      "name": "NotInitializing",
      "type": "error"
    },
    {
      "inputs": [
        {
          "internalType": "address",
          "name": "owner",
          "type": "address"
        }
      ],
      "name": "OwnableInvalidOwner",
      "type": "error"
    },
    {
      "inputs": [
        {
          "internalType": "address",
          "name": "account",
          "type": "address"
        }
      ],
      "name": "OwnableUnauthorizedAccount",
      "type": "error"
    },
    {
      "anonymous": false,
      "inputs": [
        {
          "indexed": false,
          "internalType": "uint32",
          "name": "id",
          "type": "uint32"
        }
      ],
      "name": "EventCreated",
      "type": "event"
    },
    {
      "anonymous": false,
      "inputs": [
        {
          "indexed": false,
          "internalType": "uint64",
          "name": "version",
          "type": "uint64"
        }
      ],
      "name": "Initialized",
      "type": "event"
    },
    {
      "anonymous": false,
      "inputs": [
        {
          "indexed": false,
          "internalType": "uint32",
          "name": "eventId",
          "type": "uint32"
        },
        {
          "indexed": false,
          "internalType": "uint256[]",
          "name": "outcomeIds",
          "type": "uint256[]"
        }
      ],
      "name": "OutcomesAdded",
      "type": "event"
    },
    {
      "anonymous": false,
      "inputs": [
        {
          "indexed": true,
          "internalType": "address",
          "name": "previousOwner",
          "type": "address"
        },
        {
          "indexed": true,
          "internalType": "address",
          "name": "newOwner",
          "type": "address"
        }
      ],
      "name": "OwnershipTransferred",
      "type": "event"
    },
    {
      "anonymous": false,
      "inputs": [
        {
          "indexed": false,
          "internalType": "uint32",
          "name": "eventId",
          "type": "uint32"
        },
        {
          "indexed": false,
          "internalType": "uint256[]",
          "name": "outcomeIds",
          "type": "uint256[]"
        },
        {
          "indexed": false,
          "internalType": "enum Libs.OutcomeStatus[]",
          "name": "statuses",
          "type": "uint8[]"
        },
        {
          "indexed": false,
          "internalType": "enum Libs.EventStatus",
          "name": "eventStatus",
          "type": "uint8"
        }
      ],
      "name": "SettleOutcomes",
      "type": "event"
    },
    {
      "inputs": [],
      "name": "ADMIN_ROLE",
      "outputs": [
        {
          "internalType": "bytes32",
          "name": "",
          "type": "bytes32"
        }
      ],
      "stateMutability": "view",
      "type": "function"
    },
    {
      "inputs": [
        {
          "internalType": "uint32",
          "name": "eventId",
          "type": "uint32"
        },
        {
          "internalType": "uint256[]",
          "name": "outcomeIds",
          "type": "uint256[]"
        }
      ],
      "name": "addOutcomes",
      "outputs": [],
      "stateMutability": "nonpayable",
      "type": "function"
    },
    {
      "inputs": [
        {
          "internalType": "uint32",
          "name": "eventId",
          "type": "uint32"
        },
        {
          "internalType": "address",
          "name": "sender",
          "type": "address"
        },
        {
          "internalType": "uint256",
          "name": "winningFee",
          "type": "uint256"
        }
      ],
      "name": "claim",
      "outputs": [
        {
          "internalType": "uint256",
          "name": "",
          "type": "uint256"
        },
        {
          "internalType": "uint256",
          "name": "",
          "type": "uint256"
        },
        {
          "internalType": "uint256",
          "name": "",
          "type": "uint256"
        }
      ],
      "stateMutability": "nonpayable",
      "type": "function"
    },
    {
      "inputs": [
        {
          "internalType": "uint32",
          "name": "eventId",
          "type": "uint32"
        },
        {
          "internalType": "uint256[]",
          "name": "outcomeIds",
          "type": "uint256[]"
        },
        {
          "internalType": "uint256",
          "name": "startTime",
          "type": "uint256"
        },
        {
          "internalType": "uint256",
          "name": "expiredTime",
          "type": "uint256"
        }
      ],
      "name": "createEvent",
      "outputs": [],
      "stateMutability": "nonpayable",
      "type": "function"
    },
    {
      "inputs": [
        {
          "internalType": "uint256",
          "name": "outcomeId",
          "type": "uint256"
        },
        {
          "internalType": "address",
          "name": "account",
          "type": "address"
        }
      ],
      "name": "getOutcomeAndInitialBalance",
      "outputs": [
        {
          "internalType": "uint256",
          "name": "",
          "type": "uint256"
        },
        {
          "internalType": "uint256",
          "name": "",
          "type": "uint256"
        },
        {
          "internalType": "uint256",
          "name": "",
          "type": "uint256"
        },
        {
          "internalType": "uint256",
          "name": "",
          "type": "uint256"
        }
      ],
      "stateMutability": "view",
      "type": "function"
    },
    {
      "inputs": [
        {
          "internalType": "uint256",
          "name": "outcomeId",
          "type": "uint256"
        },
        {
          "internalType": "address",
          "name": "account",
          "type": "address"
        }
      ],
      "name": "getOutcomeBalance",
      "outputs": [
        {
          "internalType": "uint256",
          "name": "long",
          "type": "uint256"
        },
        {
          "internalType": "uint256",
          "name": "short",
          "type": "uint256"
        }
      ],
      "stateMutability": "view",
      "type": "function"
    },
    {
      "inputs": [
        {
          "internalType": "uint256",
          "name": "outcomeId",
          "type": "uint256"
        }
      ],
      "name": "getOutcomeStatus",
      "outputs": [
        {
          "internalType": "enum Libs.OutcomeStatus",
          "name": "status",
          "type": "uint8"
        }
      ],
      "stateMutability": "view",
      "type": "function"
    },
    {
      "inputs": [
        {
          "internalType": "address",
          "name": "bookieAddress",
          "type": "address"
        }
      ],
      "name": "initialize",
      "outputs": [],
      "stateMutability": "nonpayable",
      "type": "function"
    },
    {
      "inputs": [
        {
          "internalType": "address",
          "name": "_address",
          "type": "address"
        },
        {
          "internalType": "bytes32",
          "name": "_hash",
          "type": "bytes32"
        },
        {
          "internalType": "bytes",
          "name": "_signature",
          "type": "bytes"
        }
      ],
      "name": "isValidSignature",
      "outputs": [
        {
          "internalType": "bool",
          "name": "",
          "type": "bool"
        }
      ],
      "stateMutability": "view",
      "type": "function"
    },
    {
      "inputs": [
        {
          "internalType": "address",
          "name": "buyer",
          "type": "address"
        },
        {
          "internalType": "address",
          "name": "seller",
          "type": "address"
        },
        {
          "internalType": "uint256",
          "name": "outcomeId",
          "type": "uint256"
        },
        {
          "internalType": "uint256",
          "name": "amount",
          "type": "uint256"
        }
      ],
      "name": "mint",
      "outputs": [],
      "stateMutability": "nonpayable",
      "type": "function"
    },
    {
      "inputs": [],
      "name": "owner",
      "outputs": [
        {
          "internalType": "address",
          "name": "",
          "type": "address"
        }
      ],
      "stateMutability": "view",
      "type": "function"
    },
    {
      "inputs": [],
      "name": "renounceOwnership",
      "outputs": [],
      "stateMutability": "nonpayable",
      "type": "function"
    },
    {
      "inputs": [
        {
          "internalType": "address",
          "name": "bookieAddress",
          "type": "address"
        }
      ],
      "name": "setBookie",
      "outputs": [],
      "stateMutability": "nonpayable",
      "type": "function"
    },
    {
      "inputs": [
        {
          "internalType": "bool",
          "name": "isPaused",
          "type": "bool"
        }
      ],
      "name": "setPaused",
      "outputs": [],
      "stateMutability": "nonpayable",
      "type": "function"
    },
    {
      "inputs": [
        {
          "internalType": "uint32",
          "name": "eventId",
          "type": "uint32"
        },
        {
          "internalType": "uint256[]",
          "name": "outcomeIds",
          "type": "uint256[]"
        },
        {
          "internalType": "enum Libs.OutcomeStatus[]",
          "name": "statuses",
          "type": "uint8[]"
        },
        {
          "internalType": "enum Libs.EventStatus",
          "name": "eventStatus",
          "type": "uint8"
        }
      ],
      "name": "settleOutcomes",
      "outputs": [],
      "stateMutability": "nonpayable",
      "type": "function"
    },
    {
      "inputs": [
        {
          "internalType": "address",
          "name": "from",
          "type": "address"
        },
        {
          "internalType": "address",
          "name": "to",
          "type": "address"
        },
        {
          "internalType": "uint256",
          "name": "outcomeId",
          "type": "uint256"
        },
        {
          "internalType": "uint256",
          "name": "amount",
          "type": "uint256"
        }
      ],
      "name": "transferLong",
      "outputs": [
        {
          "internalType": "bool",
          "name": "",
          "type": "bool"
        }
      ],
      "stateMutability": "nonpayable",
      "type": "function"
    },
    {
      "inputs": [
        {
          "internalType": "address",
          "name": "newOwner",
          "type": "address"
        }
      ],
      "name": "transferOwnership",
      "outputs": [],
      "stateMutability": "nonpayable",
      "type": "function"
    },
    {
      "inputs": [
        {
          "internalType": "address",
          "name": "from",
          "type": "address"
        },
        {
          "internalType": "address",
          "name": "to",
          "type": "address"
        },
        {
          "internalType": "uint256",
          "name": "outcomeId",
          "type": "uint256"
        },
        {
          "internalType": "uint256",
          "name": "amount",
          "type": "uint256"
        }
      ],
      "name": "transferShort",
      "outputs": [
        {
          "internalType": "bool",
          "name": "",
          "type": "bool"
        }
      ],
      "stateMutability": "nonpayable",
      "type": "function"
    }
  ],
  "bytecode": "0x6080806040523461001657611dd8908161001c8239f35b600080fdfe6080604052600436101561001257600080fd5b60003560e01c80630b6e7fa61461133557806316c38b3c1461122157806322a918d3146110fd578063238a4d1e14610f4e57806339a7e4c414610e44578063410f0f9314610cd1578063522aef4814610c3157806355cf4d4114610b0d57806365e6263a14610adb578063715018a614610a7157806375b238fc14610a48578063831602b1146107f55780638da5cb5b146107bf5780638da75f3314610792578063b3f1c93d146105cf578063c4d66de814610479578063d260b518146101125763f2fde38b146100e257600080fd5b3461010d57602036600319011261010d5761010b6100fe611832565b6101066118bf565b6118f8565b005b600080fd5b3461010d57606036600319011261010d5761012b611773565b610133611848565b6000546040516321f8a72160e01b8152600080516020611ce3833981519152600482015260443592916020916024916001600160a01b039190849082908590829086165afa90811561046d57600091610440575b50813391160361040a5760009560009063ffffffff60009116600052600080516020611d43833981519152855260406000209760405180998a91888254918281520191600052886000209060005b8a8282106103f35750505050906101ed91038a611786565b6000905b89518210156103995761020d610207838c6119f4565b51611bfc565b90600582101561038457908a9392918a8a6002938481146000146102e4575061028c8561028681969561028061026f6102d6976103e861025e8f996102586102dd9f6102689c6119f4565b51611bb8565b5098899283611b77565b0493611b6a565b9c61027a8388611b5d565b90611b6a565b99611b6a565b986119f4565b51600052600080516020611d638339815191528b52604060002092898d1660005283018b5260406000206102cd8282546102c882821015611b1b565b611b5d565b90558254611b5d565b90556119cf565b90926101f1565b9297959693926003146102ff575b505050506102dd906119cf565b90610338856102868699989a61028061026f6102686103e861032d6103779a6102586102dd9f9e8a906119f4565b998a80949250611b77565b51600052600080516020611d638339815191528b52604060002092898d1660005283018b5260016040600020016102cd8282546102c882821015611b1b565b90559050898b8a8a6102f2565b86634e487b7160e01b60005260216004526000fd5b935050908481156103b857606094506040519384528301526040820152f35b6064906015866040519262461bcd60e51b8452600484015282015274125b9d985b1a59081c995d1d5c9b88185b5bdd5b9d605a1b6044820152fd5b835485528e955090930192600192830192016101d5565b60405162461bcd60e51b815260206004820152600e60248201526d24b73b30b634b21021b0b63632b960911b6044820152606490fd5b6104609150843d8611610466575b6104588183611786565b810190611a47565b87610187565b503d61044e565b6040513d6000823e3d90fd5b3461010d57602036600319011261010d57610492611832565b7ff0c57e16840df040f15088dc2f81fe391c3923bec73e23a9662efc9c229c6a009081549060ff8260401c1615916001600160401b038116801590816105c7575b60011490816105bd575b1590816105b4575b506105a25767ffffffffffffffff198116600117845582610583575b5061050a61196c565b61051261196c565b61051b336118f8565b61052361196c565b600080546001600160a01b0319166001600160a01b039290921691909117905561054957005b805460ff60401b19169055604051600181527fc7f505b2f371ae2175ee4913f4499e1f2633a7b5936321eed1cdaeb6115181d290602090a1005b68ffffffffffffffffff19166801000000000000000117835583610501565b60405163f92ee8a960e01b8152600490fd5b905015856104e5565b303b1591506104dd565b8491506104d3565b3461010d576105dd3661185e565b909160018060a01b0380600054169460405180966321f8a72160e01b8252600080516020611ce383398151915260048301528160246020998a935afa90811561046d57600091610775575b50823391160361040a5761063d841515611ad9565b84600052600080516020611d63833981519152865263ffffffff60406000209560401c16600052600080516020611d438339815191528652600160406000200154151580610745575b1561070e579460018281949361070a97981690816000526002890184526040600020941692836000526040600020916000526003890190526040600020926000526040600020936106d8878254611b6a565b9055016106e6858254611b6a565b90556106f3848254611b6a565b905501610701828254611b6a565b90558254611b6a565b9055005b60405162461bcd60e51b815260048101879052600f60248201526e496e76616c6964204f7574636f6d6560881b6044820152606490fd5b5060ff600186015416600581101561075f57600114610686565b634e487b7160e01b600052602160045260246000fd5b61078c9150873d8911610466576104588183611786565b87610628565b3461010d57602036600319011261010d5760206107b0600435611bfc565b6107bd60405180926118b2565bf35b3461010d57600036600319011261010d57600080516020611d03833981519152546040516001600160a01b039091168152602090f35b3461010d57608036600319011261010d5761080e611773565b6024356001600160401b03811161010d5761082d9036906004016117d4565b9060018060a01b03600054169060405191632474521560e21b90818452600080516020611d2383398151915260048501523360248501526020938481604481855afa801561046d578591600091610a2b575b501592836109ba575b5050506109865763ffffffff1680600052600080516020611d438339815191528252604060002092600384019081549160ff83166108c5816119c5565b61094a576001809360443582890155606435600289015560ff1916179055816000905b610919575b7fa19caec5521cafae555f4e27388c2f8e35d66629c53326c307de6bbc7eb4104c8585604051908152a1005b8151811015610945578061093a61093361093f93856119f4565b5188611a1e565b6119cf565b826108e8565b6108ed565b60405162461bcd60e51b81526004810186905260146024820152734576656e7420616c72656164792065786973747360601b6044820152606490fd5b60405162461bcd60e51b815260206004820152600c60248201526b4d697373696e6720526f6c6560a01b6044820152606490fd5b909192506044604051809481938252600080516020611d8383398151915260048301523360248301525afa90811561046d576000916109fe575b5015848381610888565b610a1e9150833d8511610a24575b610a168183611786565b8101906119ad565b846109f4565b503d610a0c565b610a429150823d8411610a2457610a168183611786565b8761087f565b3461010d57600036600319011261010d576020604051600080516020611d838339815191528152f35b3461010d57600036600319011261010d57610a8a6118bf565b600080516020611d0383398151915280546001600160a01b031981169091556000906001600160a01b03167f8be0079c531659141344cd1fd0a4f28419497f9722a3daafe3b4186f6b6457e08280a3005b3461010d57604036600319011261010d576040610b01610af9611848565b600435611bb8565b82519182526020820152f35b3461010d57610b1b3661185e565b6000546040516321f8a72160e01b8152600080516020611ce383398151915260048201526020956001600160a01b03959094929091908790829060249082908a165afa90811561046d57600091610c14575b50853391160361040a57610c0993610b86841515611ad9565b82600052600080516020611d63833981519152908188528660026040600020019116600052875260406000209583600052818852600260406000200192169182600052875260406000209260005286526003604060002001906000528552604060002093610bfc8382546102c882821015611b1b565b9055610701828254611b6a565b905560405160018152f35b610c2b9150873d8911610466576104588183611786565b87610b6d565b3461010d57604036600319011261010d576080600435610c4f611848565b81600052600080516020611d638339815191529060209180835260026040600020019160018060a01b031691826000528352610c8e6040600020611b8a565b9360005282526003604060002001906000528152610caf6040600020611b8a565b8183519301518282519201519260405194855284015260408301526060820152f35b3461010d57604036600319011261010d57610cea611773565b6024356001600160401b03811161010d57610d099036906004016117d4565b6000546040516321f8a72160e01b8152600080516020611d238339815191526004820152919260209290916001600160a01b039084908390602490829085165afa91821561046d57600092610e25575b503391160361040a5763ffffffff1680600052600080516020611d4383398151915280835260ff6003604060002001541690610d94826119c5565b610da16001809314611a66565b6000825b610ded575b505050610de87f7a96865665b8894a6f498514bf7fadf2fcd5bd0944cd1ed95289ec11ca3ab849936040805194859485528401526040830190611aa5565b0390a1005b8551811015610e2057610e1a908460005282865261093a6040600020610e13838a6119f4565b5190611a1e565b82610da5565b610daa565b610e3d919250843d8611610466576104588183611786565b9085610d59565b3461010d5760208060031936011261010d57610e5e611832565b600054604051632474521560e21b808252600080516020611d838339815191526004830181905233602484015292946001600160a01b039493909285871691908481604481865afa90811561046d57600091610f31575b50159283610edb575b5050509050610986576001600160a01b0319909216911617600055005b849293506044906040519485938492835260048301523360248301525afa91821561046d57600092610f14575b50501580858080610ebe565b610f2a9250803d10610a2457610a168183611786565b8480610f08565b610f489150853d8711610a2457610a168183611786565b88610eb5565b3461010d57606036600319011261010d57610f67611832565b604435906024356001600160401b03831161010d573660238401121561010d57826004013591610f9683611897565b92610fa46040519485611786565b808452366024828701011161010d57602494816000926020978893018388013785010152610fd28383611c20565b50610fdf819592956119c5565b1593846110e7575b508315610ffc575b5050506040519015158152f35b9091925060405184810191630b135d3f60e11b948584526024830152604060448301528051908160648401528660005b8381106110d357505050918161106260848286600083819a9899829a010152601f80199101168101036064810184520182611786565b51915afa903d156110cc573d61107781611897565b906110856040519283611786565b81523d60008583013e5b826110bf575b826110a5575b5050828080610fef565b909150828180518101031261010d5782015114828061109b565b9150828251101591611095565b606061108f565b82810182015185820160840152810161102c565b6001600160a01b03838116911614935085610fe7565b3461010d5761110b3661185e565b9160018060a01b0380600054169460405180966321f8a72160e01b8252600080516020611ce383398151915260048301528160246020998a935afa90811561046d57600091611204575b50823391160361040a57610c09936001938492611173881515611ad9565b82600052600080516020611d6383398151915290818a528560026040600020019116600052895260406000209483600052818a5260026040600020019216918260005289526040600020926000528852600360406000200190600052875281604060002093016111eb8782546102c882821015611b1b565b9055016111f9858254611b6a565b905501918254611b6a565b61121b9150873d8911610466576104588183611786565b87611155565b3461010d5760208060031936011261010d5760043580151580910361010d57600054604051632474521560e21b808252600080516020611d838339815191526004830181905233602484015292949290916001600160a01b03861691908481604481865afa90811561046d57600091611318575b501592836112c2575b50505090506109865760ff60a01b1990911660a09190911b60ff60a01b1617600055005b849293506044906040519485938492835260048301523360248301525afa91821561046d576000926112fb575b5050158084808061129e565b6113119250803d10610a2457610a168183611786565b83806112ef565b61132f9150853d8711610a2457610a168183611786565b87611295565b3461010d57608036600319011261010d5761134e611773565b6001600160401b039060243582811161010d5761136f9036906004016117d4565b9160443590811161010d573660238201121561010d57806004013591611394836117bd565b916113a26040519384611786565b83835260208301906024829560051b8201019036821161010d57602401915b81831061175a575050506004606435101561010d57600054604051632474521560e21b808252600080516020611d238339815191526004830152336024830152916001600160a01b031690602081604481855afa90811561046d5760009161173b575b501591826116d8575b50506109865763ffffffff8116600052600080516020611d4383398151915260205261146f600160ff60036040600020015416611469816119c5565b14611a66565b61147c8451835114611ad9565b60005b84518110156116015763ffffffff821663ffffffff61149e83886119f4565b5160401c16036115c7576114b281866119f4565b51600052600080516020611d6383398151915260205260ff60016040600020015416600581101561075f5760010361158d576114ef6064356119c5565b60643560030361153a578061150761153592876119f4565b51600052600080516020611d638339815191526020526001604060002001600460ff198254161790556119cf565b61147f565b61154481846119f4565b5190600582101561075f576115359161155d82886119f4565b51600052600080516020611d6383398151915260205260016040600020019060ff801983541691161790556119cf565b60405162461bcd60e51b81526020600482015260126024820152714f7574636f6d65204e6f742041637469766560701b6044820152606490fd5b60405162461bcd60e51b8152602060048201526012602482015271125b9d985b1a590813dd5d18dbdb5948125960721b6044820152606490fd5b509060206116628563ffffffff8516600052600080516020611d43833981519152835260036040600020016116376064356119c5565b60ff1981541660ff6064351617905563ffffffff604051951685526080838601526080850190611aa5565b918383036040850152519182815201929060005b8181106116b9577f70ee00dea06682871c167cc5fff0f353fcd05599fe9d245ce75bd0c67585265e8480876116ac6064356119c5565b60643560608301520390a1005b909193602080826116cd60019489516118b2565b019501929101611676565b60209192506044604051809481938252600080516020611d8383398151915260048301523360248301525afa90811561046d5760009161171c575b5015858061142d565b611735915060203d602011610a2457610a168183611786565b85611713565b611754915060203d602011610a2457610a168183611786565b87611424565b8235600581101561010d578152602092830192016113c1565b6004359063ffffffff8216820361010d57565b90601f801991011681019081106001600160401b038211176117a757604052565b634e487b7160e01b600052604160045260246000fd5b6001600160401b0381116117a75760051b60200190565b81601f8201121561010d578035916117eb836117bd565b926117f96040519485611786565b808452602092838086019260051b82010192831161010d578301905b828210611823575050505090565b81358152908301908301611815565b600435906001600160a01b038216820361010d57565b602435906001600160a01b038216820361010d57565b608090600319011261010d576001600160a01b0390600435828116810361010d5791602435908116810361010d57906044359060643590565b6001600160401b0381116117a757601f01601f191660200190565b90600582101561075f5752565b600080516020611d03833981519152546001600160a01b031633036118e057565b60405163118cdaa760e01b8152336004820152602490fd5b6001600160a01b0390811690811561195357600080516020611d0383398151915280546001600160a01b031981168417909155167f8be0079c531659141344cd1fd0a4f28419497f9722a3daafe3b4186f6b6457e0600080a3565b604051631e4fbdf760e01b815260006004820152602490fd5b60ff7ff0c57e16840df040f15088dc2f81fe391c3923bec73e23a9662efc9c229c6a005460401c161561199b57565b604051631afcd79f60e31b8152600490fd5b9081602091031261010d5751801515810361010d5790565b6004111561075f57565b60001981146119de5760010190565b634e487b7160e01b600052601160045260246000fd5b8051821015611a085760209160051b010190565b634e487b7160e01b600052603260045260246000fd5b805490600160401b8210156117a75760018201808255821015611a085760005260206000200155565b9081602091031261010d57516001600160a01b038116810361010d5790565b15611a6d57565b60405162461bcd60e51b815260206004820152601060248201526f4576656e74204e6f742041637469766560801b6044820152606490fd5b90815180825260208080930193019160005b828110611ac5575050505090565b835185529381019392810192600101611ab7565b15611ae057565b60405162461bcd60e51b8152602060048201526013602482015272496e76616c696420496e7075742056616c756560681b6044820152606490fd5b15611b2257565b60405162461bcd60e51b8152602060048201526013602482015272125b9cdd59999a58da595b9d08105b5bdd5b9d606a1b6044820152606490fd5b919082039182116119de57565b919082018092116119de57565b818102929181159184041417156119de57565b90604051604081018181106001600160401b038211176117a757604052602060018294805484520154910152565b600052600080516020611d6383398151915260205260026040600020019060018060a01b0316600052602052611bf16040600020611b8a565b906020825192015190565b600052600080516020611d6383398151915260205260ff6001604060002001541690565b8151919060418303611c5157611c4a92506020820151906060604084015193015160001a90611c5c565b9192909190565b505060009160029190565b91906fa2a8918ca85bafe22016d0b997e4df60600160ff1b038411611cd657926020929160ff608095604051948552168484015260408301526060820152600092839182805260015afa15611cca5780516001600160a01b03811615611cc157918190565b50809160019190565b604051903d90823e3d90fd5b5050506000916003919056fefd4feb1bffe856ecab4919d7fde3e54d37812cf1161f31157b5f46ca821b7e009016d09d72d40fdae2fd8ceac6b6234c7706214fd39c1cd1e609a0528c19930097667070c54ef182b0f5858b034beac1b6f3089aa2d3188bb1e8929f4fa9b929f9e05b839067e6efb65ca4beffae66e431cd0e3b9ec3b06af6d129ed4dfeba00f9e05b839067e6efb65ca4beffae66e431cd0e3b9ec3b06af6d129ed4dfeba01a49807205ce4d355092ef5a8a18f56e8913cf4a201fbe287825b095693c21775a2646970667358221220d07a4b31df3b77cd0443a995858d663e399a040f83b2fff1bdbe3e89dba88d3b64736f6c63430008140033",
  "linkReferences": {},
  "deployedLinkReferences": {}
}